:020000040000FA
:02000000422894
:040002000034003492
:080008008B130830B300061849
:100010001B288618072806181B28861C0B28800D0D
:10002000001006190014B20AB30B0728B40A840A98
:10003000B40B05283328831203132008E039A03AB3
:10004000031D33280C30831203133202031C3328A0
:100050008A303202031833283118B1172F28203084
:100060008A110A12C5208A110A1239208A110A122D
:10007000090083120313B201203084001230B4004F
:10008000B10108008A110A127D208A110A12A820E3
:100090008A110A12B8228A110A1239208A110A1208
:1000A000831203134830C6004530C7004C30C800E7
:1000B0004C30C9004F30CA004830CB004530CC002E
:1000C0004C30CD004C30CE004F30CF004830D00007
:1000D0004530D1004C30D2004C30D3004F30D400EA
:1000E0002030D50046308A110A1264218A110A1282
:1000F0009A228A110A128B177C288316031788010B
:100100008901850183120317870188018312031374
:10011000313090008316031397131713A830810012
:1001200050308B008316031303018500870088007D
:1001300089008600061486140615831203138501B0
:10014000860187018801890183120C100800A72805
:1001500083120313061686128A110A12C7228A1105
:100160000A12BC218A110A12D1218A110A12E42131
:100170008A110A12F7218A110A12A2218A110A127F
:10018000AF218A110A120D22080083120313D9002D
:10019000123E84000008D80059088400831203131B
:1001A00006128A110A12C7228A110A128312031335
:1001B0000830DA00801FEA287C2183120313D80B51
:1001C000E5288312031306160800800DDA0BDA28DF
:1001D000840AD8286821DD2883120313D9009021CE
:1001E000831203130630DA00682183120313DA0B3B
:1001F000F428590884000830DA000008D800D81F15
:1002000016297C2183120313D80DDA0BFF28840AE8
:100210005908103E0406031DFB288312031306161B
:100220008A110A12CC228A110A12080068210229B6
:100230008A110A1223228A110A1283120313DB0085
:1002400090218312031335090F3983120313D80049
:10025000D80D58100630DA00D81E45297C21D80D5B
:10026000DA0B2C290830DA00DB1F47297C218312A6
:100270000313DB0DDA0B34298312031306168A11DC
:100280000A12C7228A110A12080068212F29682140
:10029000372983120313D9000408DB001030DA0079
:1002A0005908840000088A110A1223228A110A12AE
:1002B000D8005A03363E840058088000D90ADA0B69
:1002C00050295B088400080049213630EC200800E2
:1002D000831203138613000086168A110A12C7229E
:1002E0008A110A1283120313861286138A110A12C4
:1002F000C7228A110A12080083120313861700000E
:1003000086168A110A12C7228A110A12831203134F
:10031000861286138A110A12C7228A110A1208004D
:100320008312031306128A110A12C7228A110A12B3
:100330007C2168217C2108000612C7227C216821CB
:10034000682108009C2168217C216821682168219E
:1003500068216821682168210616C72208009C21AF
:100360007C217C217C216821682168217C217C21E1
:100370007C210616C72208009C2183120313073034
:10038000DA00682183120313DA0BC1297C217C2156
:100390008312031306168A110A12C7228A110A123F
:1003A00008009C216821682168217C217C2168212A
:1003B0006821682168218312031306168A110A1224
:1003C000C7228A110A1208009C21682168217C2119
:1003D00068217C21682168217C217C218312031300
:1003E00006168A110A12C7228A110A1208009C21D5
:1003F000831203130630DA00682183120313DA0B29
:10040000FC297C21682168218312031306168A11B6
:100410000A12C7228A110A1208009C2183120313B0
:100420000630DA00682183120313DA0B122A7C21CA
:100430007C217C218312031306168A110A12C7221B
:100440008A110A12080083120313D800303A0319E4
:100450007D345808313A031960345808323A031988
:100460003E345808333A03197A345808343A031999
:1004700063345808353A03195B345808363A03197F
:100480005F345808373A031970345808383A03195A
:100490007F345808393A03197B345808413A031914
:1004A00077345808623A03194F345808433A03190D
:1004B0001D345808643A03196E345808453A031934
:1004C0001F345808463A031917345808473A031995
:1004D0005D345808483A0319673458084A3A0319F2
:1004E0006C3458084C3A03190D3458086E3A031905
:1004F000463458084F3A03197D345808703A0319A6
:1005000037345808723A031906345808533A031915
:100510005B345808743A03190F345808553A0319D4
:100520006D3458082D3A031902345808203A03193B
:1005300000340800831203138230D800FF30D90042
:10054000FF30DA00DA0BA22AD90BA02AD80B9E2A98
:100550000800831203131A30D800FF30D900FF308F
:10056000DA00DA0BB12AD90BAF2AD80BAD2A080072
:10057000831203130D30D800FF30D900FF30DA00AA
:10058000DA0BC02AD90BBE2AD80BBC2A08000630C9
:10059000DB00DB0BC92A08000330DB00DB0BCE2AB3
:1005A00008008312031389303206031DDB2A8312ED
:0805B0000313D6010800080046
:02400E00A220EE
:02401000FF3877
:00000001FF
