:020000040000FA
:02000000422894
:040002000034003492
:080008008B130830B300061849
:100010001B288618072806181B28861C0B28800D0D
:10002000001006190014B20AB30B0728B40A840A98
:10003000B40B05283328831203132008E039A03AB3
:10004000031D33280C30831203133202031C3328A0
:100050008A303202031833283118B1172F28203084
:100060008A110A129B218A110A1239208A110A1256
:10007000090083120313B201203084001230B4004F
:10008000B10108008A110A1211218A110A127E2177
:100090008A110A125A218A110A1239208A110A1267
:1000A000831203134830B5004530B6004C30B7001A
:1000B0004C30B8004F30B9002030BA004630BB0099
:1000C0004F30BC007230BD002030BE002030BF0079
:1000D0004130C0004C30C1004C30C2002030C30061
:1000E0002030C40035308A110A1275228A110A1292
:1000F0008A110A124B218A110A128312031320302B
:10010000B5006230B6005930B7004530B800203035
:10011000B90035308A110A121C228A110A128A117A
:100120000A124B218A110A12831203132030BA00DB
:100130006E30BB006E30BC005930BD002030BE00B8
:100140003A308A110A123A228A110A128A110A12C4
:100150004B218A110A12831203134630BF007230FA
:10016000C0003130C1004530C2006E30C300643081
:10017000C4003F308A110A1258228A110A128A11C9
:100180000A124B218A110A12831203130630C70088
:1001900064308A110A12EE218A110A128A110A1297
:1001A0004B218A110A12831203130730C70045300E
:1001B0008A110A12EE218A110A128A110A124B219F
:1001C0008A110A12831203130830C70041308A11C2
:1001D0000A12EE218A110A128A110A124B218A117F
:1001E0000A12831203130930C70072308A110A12EF
:1001F000EE218A110A128A110A124B218A110A125F
:10020000831203130A30C70020308A110A12EE212C
:100210008A110A128A110A124B218A110A128B17AB
:10022000102983160317880189018501831203179A
:100230008701880183120313313090008316031362
:1002400097131713A830810050308B0083160313C7
:100250000301850087008800890086000614861443
:100260000615831203138501860187018801890120
:0802700083120C1008003B2969
:08027800831203138230D80049
:10028000FF30D900FF30DA00DA0B4429D90B4229BC
:10029000D80B40290800831203131A30D800FF300E
:1002A000D900FF30DA00DA0B5329D90B5129D80BCA
:1002B0004F290800831203130D30D800FF30D900F6
:1002C000FF30DA00DA0B6229D90B6029D80B5E29DE
:1002D00008000630DB00DB0B6B2908000330DB0075
:1002E000DB0B702908008312031389303206031DCB
:1002F0007D2983120313C50108000800831203132C
:10030000061686128A110A1269218A110A12CD2252
:100310008A110A12E2228A110A12F5228A110A129D
:1003200008238A110A12B3228A110A12C0228A11E2
:100330000A121E23080083120313D900123E840000
:100340000008D800590884008312031306128A118A
:100350000A1269218A110A12831203130830DA0083
:10036000801FC0298D2283120313D80BBB2983124F
:10037000031306160800800DDA0BB029840AAE2993
:100380007922B32983120313D900A1228312031304
:100390000630DA00792283120313DA0BCA295908CE
:1003A00084000830DA000008D800D81FEC298D221C
:1003B00083120313D80DDA0BD529840A5908103E8D
:1003C0000406031DD1298312031306168A110A128B
:1003D0006E218A110A1208007922D8298A110A127C
:1003E00034238A110A12D9000408DB004708103CA4
:1003F000483E8400590880005B0884004830C221D0
:10040000080083120313D9000408DB001030DA005F
:100410005908840000088A110A1234238A110A122A
:10042000D8005A03483E840058088000D90ADA0BE5
:10043000082A5B088400080083120313D90004080B
:10044000DB000530DA005908840000088A110A121E
:1004500034238A110A12D8000A305A07483E840011
:1004600058088000D90ADA0B232A5B088400483038
:10047000C221080083120313D9000408DB000530F1
:10048000DA005908840000088A110A1234238A11FC
:100490000A12D80005305A07483E840058088000E8
:1004A000D90ADA0B412A5B0884004830C2210800CF
:1004B00083120313D9000408DB000630DA00590860
:1004C000840000088A110A1234238A110A12D80003
:1004D0005A03483E840058088000D90ADA0B5F2A84
:1004E0005B0884004830C221080001224830C22144
:1004F0000800831203138613000086168A110A125D
:1005000069218A110A1283120313861286138A1133
:100510000A1269218A110A1208008312031386172E
:10052000000086168A110A1269218A110A128312A2
:100530000313861286138A110A1269218A110A127C
:1005400008008312031306128A110A1269218A1104
:100550000A128D2279228D220800061269218D222D
:10056000792279220800AD2279228D2279227922FE
:1005700079227922792279227922061669210800C6
:10058000AD228D228D228D227922792279228D220F
:100590008D228D22061669210800AD2283120313D5
:1005A0000730DA00792283120313DA0BD22A8D2264
:1005B0008D228312031306168A110A1269218A11E9
:1005C0000A120800AD227922792279228D228D2209
:1005D00079227922792279228312031306168A114D
:1005E0000A1269218A110A120800AD2279227922A1
:1005F0008D2279228D22792279228D228D228312D9
:10060000031306168A110A1269218A110A120800B8
:10061000AD22831203130630DA007922831203130A
:10062000DA0B0D2B8D227922792283120313061601
:100630008A110A1269218A110A120800AD22831256
:1006400003130630DA00792283120313DA0B232B0B
:100650008D228D228D228312031306168A110A120F
:1006600069218A110A12080083120313D800303A54
:1006700003197D345808313A031960345808323A66
:1006800003193E345808333A03197A345808343A77
:10069000031963345808353A03195B345808363A5D
:1006A00003195F345808373A031970345808383A38
:1006B00003197F345808393A03197B345808413AF2
:1006C000031977345808623A03194F345808433AEB
:1006D00003191D345808643A03196E345808453A12
:1006E00003191F345808463A031917345808473A73
:1006F00003195D345808483A0319673458084A3AD0
:1007000003196C3458084C3A03190D3458086E3AE2
:100710000319463458084F3A03197D345808703A83
:10072000031937345808723A031906345808533AF3
:1007300003195B345808743A03190F345808553AB2
:1007400003196D345808593A03196B3458082D3A77
:0E075000031902345808203A03190034080037
:02400E00A220EE
:02401000FF3877
:00000001FF
