:020000040000FA
:02000000422894
:040002000034003492
:080008008B130830B300061849
:100010001B288618072806181B28861C0B28800D0D
:10002000001006190014B20AB30B0728B40A840A98
:10003000B40B05283328831203132008E039A03AB3
:10004000031D33280C30831203133202031C3328A0
:100050008A303202031833283118B1172F28203084
:100060008A150A125F208A110A1239208A110A128F
:10007000090083120313B201203084001230B4004F
:10008000B10108008A110A12A8218A150A127525E1
:100090008A150A1242208A150A121E208A110A1293
:1000A00039208A110A1283120313C601C7010030D6
:1000B0008A150A1253258A110A1283120313DA00D1
:1000C00001308A150A1253258A110A12831203136A
:1000D000DB0002308A150A1253258A110A12831294
:1000E0000313DC0003308A150A1253258A110A1201
:1000F00083120313DD0004308A150A1253258A1176
:100100000A1283120313DE0005308A150A125325E2
:100110008A110A1283120313DF0006308A150A12AD
:1001200053258A110A1283120313E0008A150A125A
:1001300016248A110A128A150A1285238A110A12B4
:10014000831203135D08013A0319CD285D08023AB2
:100150000319E0285D08033A0319F3285D08043AFF
:10016000031906295D08053A031919295D08063A9D
:1001700003192C29831203132030B6003530B70041
:100180005530B8006E30B9002030BA0036308A15CC
:100190000A12AD218A110A123E298312031320305C
:1001A000B6006E30B7006E30B8003030B9006E3037
:1001B000BA0036308A150A12AD218A110A123E2978
:1001C000831203132030B6007430B7005530B800E6
:1001D0004530B9003530BA0036308A150A12AD21E3
:1001E0008A110A123E29831203132030B6005530BB
:1001F000B7005530B8004530B9006430BA00363029
:100200008A150A12AD218A110A123E29831203139C
:100210002030B6007430B7004830B8003130B90033
:100220007230BA0036308A150A12AD218A110A12CC
:100230003E29831203132030B6004630B7007230D7
:10024000B8003130B9002030BA0036308A150A12B1
:10025000AD218A110A123E29831203132030B60001
:100260003530B7004130B8007430B9002030BA00E2
:1002700036308A150A12AD218A110A12831203132D
:100280005E0E0F39303E83120313BB00831203133B
:100290005E080F39303E83120313BC002D30BD00C1
:1002A000831203135F0E0F39303E83120313BE0017
:1002B000831203135F080F39303E83120313BF000C
:1002C0003B308A150A12CE218A110A1283120313B7
:1002D0005A0E0F39303E83120313C00083120313EA
:1002E0005A080F39303E83120313C10083120313DF
:1002F0005B0E0F39303E83120313C20083120313C7
:100300005B080F39303E83120313C30083120313BB
:100310005C0E0F39303E83120313C40083120313A3
:100320005C080F39303E83120313C50040308A1534
:100330000A12EF218A110A12831203135C088A152C
:100340000A1282258A150A120F208A110A129B2886
:10035000831603178801890185018312031787011A
:10036000880183120313313090008316031397130F
:100370001713A830810050308B008316031303013C
:1003800085008700880089008600061486140615FB
:100390008312031385018601870188018901831275
:0603A0000C100800D22938
:10100000831603138230A000FF30A100FF30A2003E
:10101000A20B0828A10B0628A00B042808008316A1
:1010200003131A30A000FF30A100FF30A200A20B72
:101030001728A10B1528A00B1328080083160313EB
:101040000D30A000FF30A100FF30A200A20B262827
:10105000A10B2428A00B222808000630A300A30B14
:101060002F2808000330A300A30B342808008312A4
:10107000031389303206031D412883120313C6016E
:101080000800080083120313061686128A150A1236
:101090002D208A150A1266228A150A127B228A15C9
:1010A0000A128E228A150A12A1228A150A124C22CD
:1010B0008A150A1259228A150A12B72208008316C5
:1010C0000313A100123E84000008A0002108840040
:1010D0008312031306128A150A122D208A150A128A
:1010E000831603130830A200801F8428262283164B
:1010F0000313A00B7F288312031306160800800D2C
:10110000A20B7428840A72281222772883160313EC
:10111000A1003A22831603130630A200122283167E
:101120000313A20B8E28210884000830A2000008B7
:10113000A000A01FB028262283160313A00DA20B27
:101140009928840A2108103E0406031D952883125D
:10115000031306168A150A1232208A150A1208008D
:1011600012229C288A150A12CD228A150A12A10081
:101170000408A3004808103C493E84002108800070
:101180002308840049308620080083160313A10039
:101190000408A3001030A2002108840000088A156A
:1011A0000A12CD228A150A12A0002203493E8400A9
:1011B00020088000A10AA20BCC282108E2202308E5
:1011C000840008008316031384000008A000840A2A
:1011D0000008A400493084001030A2008013840A63
:1011E000A20BEE28A01BD817201BD717A01AD617C2
:1011F000201AD517A019D4172019D317A018D21761
:101200002018D117A41BD017241BCF17A41ACE1750
:10121000241ACD17A419CC172419CB17A418CA1750
:101220002418C917080083160313A1000408A3009B
:1012300021088400831203135908013A0319801707
:101240005908023A031900175908033A031980167E
:101250005908043A031900165908053A031980156C
:101260005908063A031900155908073A031980145A
:101270005908083A03190014840A5908093A03194D
:10128000801759080A3A0319001759080B3A03192D
:10129000801659080C3A0319001659080D3A03191B
:1012A000801559080E3A0319001559080F3A031909
:1012B00080145908103A0319001423088400080008
:1012C00083160313A1000408A300210884008312DD
:1012D00003135908013A031980135908023A0319F4
:1012E00000135908033A031980125908043A0319E4
:1012F00000125908053A031980115908063A0319D2
:1013000000115908073A031980105908083A0319BF
:101310000010840A5908093A0319801359080A3A37
:101320000319001359080B3A0319801259080C3A93
:101330000319001259080D3A0319801159080E3A81
:101340000319001159080F3A031980105908103A6F
:101350000319001023088400080083160313A1005A
:101360000408A3000530A2002108840000088A15A3
:101370000A12CD228A150A12A0000A302207493E1D
:10138000840020088000A10AA20BB42921080B3E8A
:10139000E2202308840049308620080083160313C6
:1013A000A1000408A3000530A20021088400000861
:1013B0008A150A12CD228A150A12A00005302207CA
:1013C000493E840020088000A10AA20BD5292108EB
:1013D000063EE22023088400493086200800831658
:1013E0000313A1000408A3000630A2002108840012
:1013F00000088A150A12CD228A150A12A0002203BB
:10140000493E840020088000A10AA20BF629210889
:10141000E22023088400493086200800C520493096
:1014200086200800831203138613000086168A158F
:101430000A122D208A150A128312031386128613AC
:101440008A150A122D208A150A1208008312031326
:101450008617000086168A150A122D208A150A1290
:1014600083120313861286138A150A122D208A15F9
:101470000A1208008312031306128A150A122D207D
:101480008A150A12262212222622080006122D2070
:10149000262212221222080046221222262212227C
:1014A00012221222122212221222122206162D209B
:1014B0000800462226222622262212221222122248
:1014C00026222622262206162D20080046228316D2
:1014D00003130730A200122283160313A20B6B2AF8
:1014E000262226228312031306168A150A122D209D
:1014F0008A150A12080046221222122212222622DD
:1015000026221222122212221222831203130616FC
:101510008A150A122D208A150A1208004622122264
:1015200012222622122226221222122226222622CB
:101530008312031306168A150A122D208A150A1221
:1015400008004622831603130630A20012228316D7
:101550000313A20BA62A262212221222831203139D
:1015600006168A150A122D208A150A12080046222C
:10157000831603130630A200122283160313A20B54
:10158000BC2A2622262226228312031306168A1537
:101590000A122D208A150A12080083160313A000D0
:1015A000303A03197D342008313A03196034200899
:1015B000323A03193E342008333A03197A342008AA
:1015C000343A031963342008353A03195B34200890
:1015D000363A03195F342008373A0319703420086B
:1015E000383A03197F342008393A03197B3420082C
:1015F000413A031977342008623A03194F3420081E
:10160000433A03191D342008643A03196E34200844
:10161000453A03191F342008463A031917342008A5
:10162000473A03195D342008483A03196734200803
:101630004A3A03196C3420084C3A03190D34200837
:101640006E3A0319463420084F3A03197D342008B6
:10165000703A031937342008723A03190634200807
:10166000533A03195B342008743A03190F342008E5
:10167000553A03196D342008593A03196B34200880
:101680002D3A031902342008203A031900340800C7
:1016900083120313851500008316031305158312A7
:1016A0000313851183120313D03011250030112547
:1016B0008312031385150000831603130515831287
:1016C00003138511D1301125BC24DC00E824BC248F
:1016D000DB00E824BC24DA00E824BC24DD00E82494
:1016E000BC24DE00E824BC24DF00E824BC24E000A5
:1016F000FD248312031385110000000083160313D9
:10170000051583120313851508008312031385152D
:10171000000083160313051583120313851183122A
:101720000313D030112500301125831203138515C2
:101730000000831603130515831203138511D1309E
:101740001125BC24DC00E824BC24DB00E824BC24F4
:10175000DA00FD24831203138511000000008316B4
:101760000313051583120313851508008312031351
:1017700085150000831603130515831203138511C5
:1017800083120313D0301125043011258312031363
:1017900085150000831603130515831203138511A5
:1017A00083120313D1301125BC24DE00E824BC24AD
:1017B000DF00E824BC24E000FD248312031385111C
:1017C000000000008316031305158312031385150B
:1017D00008008312031385150000831603130515F3
:1017E00083120313851183120313D03011250330A4
:1017F00011258312031385150000831603130515A5
:1018000083120313851183120313D1301125BC24D5
:10181000DD00FD24831203138511000000008316F0
:101820000313051583120313851508008312031390
:101830008515000083160313051583120313851104
:10184000D030112500301125831203135C081125B7
:10185000831203135B081125831203135A08112501
:10186000831203135D081125831203135E081125EB
:10187000831203135F0811258312031360081125D7
:10188000831203138511000000008316031305154E
:1018900083120313851508008312031385150000B6
:1018A0008316031305158312031385118312031383
:1018B000D030112500301125831203135C08112547
:1018C000831203135B081125831203135A08112591
:1018D00083120313851100000000831603130515FE
:1018E0008312031385150800831203138515000066
:1018F0008316031305158312031385118312031333
:10190000D030112504301125831203135E081125F0
:10191000831203135F081125831203136008112536
:1019200083120313851100000000831603130515AD
:101930008312031385150800831203138515000015
:1019400083160313051583120313851183120313E2
:10195000D030112503301125831203135D081125A2
:10196000831203138511000000008316031305156D
:101970008312031385150800831603138515831638
:1019800003130830A10083120313051183160313F8
:10199000051183160313A001A00DA001A00D83164D
:1019A00003130515831203138519E42C8312031303
:1019B000051183160313051183160313A10BCE2CF7
:1019C0008316031320080800831603132014D62C53
:1019D00083120313851183160313851183120313D6
:1019E00083160313051583120313000005118316D4
:1019F00003130511831203130800831203138515C3
:101A0000831603138511831203138316031305151D
:101A10008312031305118316031305118312031395
:101A2000080083160313A000831603138511831681
:101A300003130830A1008312031305118316031347
:101A4000051183120313851183160313A01B4F2561
:101A500083160313051583160313A00D83120313B6
:101A6000051183160313051183160313A10B212DF2
:101A700083160313851583120313051183160313AD
:101A8000051100000000000000000515831203137B
:101A90000511831603130511831203130800831223
:101AA000031385150800831203178D00831603178F
:101AB0000C1400000000831203170C08000003132D
:101AC00083120800831203178C00831603170C156A
:101AD00055308D00AA308D008C14000000008C1849
:101AE0006F2D0C110313831208008316031381302A
:101AF000990024309800831203138C120C121030BA
:101B00009800080083120313990083160313981C8E
:101B1000872D0800040883160313A0006230831386
:101B20008400000882258313840A83120313E10BC7
:101B3000912D8316031320088400080008008316E3
:101B400003139816831203139817080083160313C0
:101B50009812831203139813080083120313ED00E5
:101B600083120313851500008316031305158312D2
:101B700003138511A03057266A0857266B0857268D
:101B8000831203136D085726831203138511000077
:101B9000000083160313051583120313851508002F
:101BA000080083120313851500008316031305151F
:101BB000831203138511A0305726831203136A087A
:101BC0005726831203136B085726831203138515B8
:101BD0000000831603130515831203138511A1302A
:101BE0005726062683120313ED004526831203139E
:101BF00085110000000083160313051583120313DB
:101C00008515831203136D0808000800831603135B
:101C10008515831603130830A100831203130511E1
:101C200083160313051183160313A001A00DA00151
:101C3000A00D8316031305158312031385192E2E89
:101C4000831203130511831603130511831603135F
:101C5000A10B182E83160313200808008316031304
:101C60002014202E8312031385118316031385116C
:101C70008312031383160313051583120313000045
:101C8000051183160313051108008312031385152C
:101C9000831603138511831203138316031305158B
:101CA000831203130511831603130511080083160D
:101CB0000313A00083160313851183160313083042
:101CC000A100831203130511831603130511831258
:101CD0000313851183160313A01B95268316031384
:101CE000051583160313A00D831203130511831624
:101CF0000313051183160313A10B672E8316031319
:101D000085158312031305118316031305110000B3
:101D1000000000000000051583120313051183164F
:101D2000031305118312031308008312031385158F
:021D30000800A9
:02400E00A220EE
:02401000FF3877
:0E420000160045000000030021000200180017
:00000001FF
