:020000040000FA
:02000000422894
:040002000034003492
:080008008B130830B300061849
:100010001B288618072806181B28861C0B28800D0D
:10002000001006190014B20AB30B0728B40A840A98
:10003000B40B05283328831203132008E039A03AB3
:10004000031D33280C30831203133202031C3328A0
:100050008A303202031833283118B1172F28203084
:100060008A110A1298208A110A1239208A110A125A
:10007000090083120313B201203084001230B4004F
:10008000B10108008A110A1250208A110A127B203D
:100090008A110A12E3218A110A1239208B174F287C
:1000A00083160317880189018501831203178701CD
:1000B00088018312031331309000831603139713C2
:1000C0001713A830810050308B00831603130301EF
:1000D00085008700880089008600061486140615AE
:1000E0008312031385018601870188018901831228
:0600F0000C1008007A2844
:0A00F60083120313061686128A1106
:100100000A12F2218A110A125E218A110A1273213F
:100110008A110A1286218A110A1299218A110A1259
:1001200044218A110A1251218A110A12AF210800B2
:1001300083120313B700123E84000008B60037088C
:1001400084008312031306128A110A12F2218A1103
:100150000A12831203130830B800801FBD281E2125
:1001600083120313B60BB828831203130616080074
:10017000800DB80BAD28840AAB280A21B028831261
:100180000313B7003221831203130630B8000A218B
:1001900083120313B80BC728370884000830B8004F
:1001A0000008B600B61FE9281E2183120313B60DFE
:1001B000B80BD228840A3708103E0406031DCE2847
:1001C0008312031306168A110A12F7218A110A12E2
:1001D00008000A21D528B9003221B50335090F39A5
:1001E000B600B60D36100630B800B61E06291E2120
:1001F000B60DB80BF5280830B800B91F08291E2124
:10020000B90DB80BFD280616F22108000A21F828BE
:100210000A210029831203138613000086168A110F
:100220000A12F2218A110A1283120313861286130C
:100230008A110A12F2218A110A120800831203138A
:100240008617000086168A110A12F2218A110A12F4
:1002500083120313861286138A110A12F2218A115D
:100260000A1208008312031306128A110A12F221DD
:100270008A110A121E210A211E2108000612F221EB
:100280001E210A210A2108003E210A211E210A21DD
:100290000A210A210A210A210A210A210616F2212D
:1002A00008003E211E211E211E210A210A210A21A9
:1002B0001E211E211E210616F22108003E21831256
:1002C00003130730B8000A2183120313B80B632904
:1002D0001E211E218312031306168A110A12F2210F
:1002E0008A110A1208003E210A210A210A211E2130
:1002F0001E210A210A210A210A218312031306164C
:100300008A110A12F2218A110A1208003E210A21DA
:100310000A211E210A211E210A210A211E211E2135
:100320008312031306168A110A12F2218A110A1285
:1003300008003E21831203130630B8000A218312FD
:100340000313B80B9E291E210A210A2183120313CD
:1003500006168A110A12F2218A110A1208003E2199
:10036000831203130630B8000A2183120313B80B5B
:10037000B4291E211E211E218312031306168A1181
:100380000A12F2218A110A12080083120313823022
:10039000B600FF30B700FF30B800B80BCD29B70B5F
:1003A000CB29B60BC9290800831203131A30B600F3
:1003B000FF30B700FF30B800B80BDC29B70BDA29E3
:1003C000B60BD8290800831203130D30B600FF3096
:1003D000B700FF30B800B80BEB29B70BE929B60B13
:1003E000E72908000630B900B90BF42908000330EA
:0803F000B900B90BF92908005E
:02400E00A220EE
:02401000FF3877
:00000001FF
