:020000040000FA
:02000000422894
:040002000034003492
:080008008B130830B300061849
:100010001B288618072806181B28861C0B28800D0D
:10002000001006190014B20AB30B0728B40A840A98
:10003000B40B05283328831203132008E039A03AB3
:10004000031D33280C30831203133202031C3328A0
:100050008A303202031833283118B1172F28203084
:100060008A110A12E4218A110A1239208A110A120D
:10007000090083120313B201203084001230B4004F
:10008000B10108008A110A125A218A110A12C721E5
:100090008A110A12A3218A110A1239208A110A121E
:1000A00083120313C501C601831203134830B50040
:1000B0004530B6004C30B7004C30B8004F30B90076
:1000C0002030BA004630BB004F30BC007230BD005B
:1000D0002030BE002030BF004130C0004C30C10095
:1000E0004C30C2002030C3002030C40035308A11AB
:1000F0000A1295238A110A128A110A1294218A116E
:100100000A12831203130130D80045308A110A12F3
:10011000992245308A110A12682248308A110A123F
:100120000B228A110A128A110A1294218A110A12C8
:10013000831203132030B5006230B6005930B70087
:100140004530B8002030B90035308A110A12332307
:100150008A110A128A110A1294218A110A12831230
:1001600003130230D80045308A110A129922453013
:100170008A110A12682248308A110A120B228A1147
:100180000A128A110A1294218A110A128312031385
:100190002030BA006E30BB006E30BC005930BD005C
:1001A0002030BE003A308A110A1254238A110A12F2
:1001B0008A110A1294218A110A128312031303303E
:1001C000D80045308A110A12992245308A110A1244
:1001D000682248308A110A120B228A110A128A11E7
:1001E0000A1294218A110A12831203134630BF00A7
:1001F0007230C0003130C1004530C2006E30C300E3
:100200006430C4003F308A110A1275238A110A1221
:100210008A110A1294218A110A12831203130630DA
:10022000C70064308A110A1237228A110A128A1111
:100230000A1294218A110A12831203130730C7008D
:1002400045308A110A1237228A110A128A110A12BB
:1002500094218A110A12831203130830C700413017
:100260008A110A1237228A110A128A110A1294215B
:100270008A110A12831203130930C70072308A11DF
:100280000A1237228A110A128A110A1294218A113B
:100290000A12831203130A30C70020308A110A128F
:1002A00037228A110A128A110A1294218A110A121B
:1002B0008B17592983160317880189018501831239
:1002C00003178701880183120313313090008316CE
:1002D000031397131713A830810050308B00831637
:1002E0000313030185008700880089008600061437
:1002F0008614061583120313850186018701880180
:0A030000890183120C100800842903
:06030A0083120313823090
:10031000E000FF30E100FF30E200E20B8D29E10B4D
:100320008B29E00B89290800831203131A30E0009F
:10033000FF30E100FF30E200E20B9C29E10B9A293B
:10034000E00B98290800831203130D30E000FF3002
:10035000E100FF30E200E20BAB29E10BA929E00B41
:10036000A72908000630E300E30BB4290800033096
:10037000E300E30BB9290800831203138930320626
:10038000031DC62983120313C50108000800831248
:100390000313061686128A110A12B2218A110A1252
:1003A000ED238A110A1202248A110A1215248A11D5
:1003B0000A1228248A110A12D3238A110A12E0236E
:1003C0008A110A123E24080083120313E100123E30
:1003D00084000008E0006108840083120313061201
:1003E0008A110A12B2218A110A12831203130830E9
:1003F000E200801F092AAD2383120313E00B042AB5
:100400008312031306160800800DE20BF929840AF3
:10041000F7299923FC2983120313E100C1238312D6
:1004200003130630E200992383120313E20B132A0D
:10043000610884000830E2000008E000E01F352A6F
:10044000AD2383120313E00DE20B1E2A840A610818
:10045000103E0406031D1A2A8312031306168A117E
:100460000A12B7218A110A1208009923212A8A1137
:100470000A1254248A110A12E1000408E300470812
:10048000103C483E840061088000630884004830C6
:100490000B22080083120313E1000408E30010306C
:1004A000E2006108840000088A110A1254248A11AB
:1004B0000A12E0006203483E840060088000E10AFE
:1004C000E20B512A6108103E68226308840008008C
:1004D0008312031384000008E000840A0008E4008B
:1004E000483084001030E2008013840AE20B742A42
:1004F000E01BD717601BD617E01AD517601AD41760
:10050000E019D3176019D217E018D1176018D01767
:10051000E41BCF17641BCE17E41ACD17641ACC174F
:10052000E419CB176419CA17E418C9176418C81757
:10053000080083120313E1000408E300610884004B
:10054000831203135808013A031980175808023A16
:10055000031900175808033A031980165808043A7B
:10056000031900165808053A031980155808063A69
:10057000031900155808073A031980145808083A57
:1005800003190014840A5808093A031980175808F7
:100590000A3A0319001758080B3A0319801658082D
:1005A0000C3A0319001658080D3A0319801558081B
:1005B0000E3A0319001558080F3A03198014580809
:1005C000103A03190014630884000800831203130F
:1005D000E1000408E3006108840083120313580853
:1005E000013A031980135808023A031900135808F6
:1005F000033A031980125808043A031900125808E4
:10060000053A031980115808063A031900115808D1
:10061000073A031980105808083A03190010840A91
:100620005808093A0319801358080A3A03190013A5
:1006300058080B3A0319801258080C3A0319001293
:1006400058080D3A0319801158080E3A0319001181
:1006500058080F3A031980105808103A031900106F
:1006600063088400080083120313E1000408E30018
:100670000530E2006108840000088A110A1254243F
:100680008A110A12E0000A306207483E84006008BE
:100690008000E10AE20B3A2B6108103E68226308F1
:1006A000840048300B22080083120313E100040881
:1006B000E3000530E2006108840000088A110A1294
:1006C00054248A110A12E00005306207483E840073
:1006D00060088000E10AE20B5B2B61080B3E682298
:1006E0006308840048300B22080083120313E100E2
:1006F0000408E3000630E2006108840000088A1163
:100700000A1254248A110A12E0006203483E84004F
:1007100060088000E10AE20B7C2B6108063E68223B
:100720006308840048300B2208004A2248300B221C
:100730000800831203138613000086168A110A121A
:10074000B2218A110A1283120313861286138A11A8
:100750000A12B2218A110A120800831203138617A3
:10076000000086168A110A12B2218A110A12831217
:100770000313861286138A110A12B2218A110A12F1
:1007800008008312031306128A110A12B2218A1179
:100790000A12AD239923AD2308000612B221AD231E
:1007A000992399230800CD239923AD2399239923D5
:1007B000992399239923992399230616B221080096
:1007C000CD23AD23AD23AD23992399239923AD23C5
:1007D000AD23AD230616B2210800CD2383120313E7
:1007E0000730E200992383120313E20BF22BAD23AF
:1007F000AD238312031306168A110A12B2218A113D
:100800000A120800CD23992399239923AD23AD2300
:1008100099239923992399238312031306168A1186
:100820000A12B2218A110A120800CD2399239923B2
:10083000AD239923AD2399239923AD23AD238312AF
:10084000031306168A110A12B2218A110A1208002D
:10085000CD23831203130630E2009923831203137E
:10086000E20B2D2CAD239923992383120313061633
:100870008A110A12B2218A110A120800CD238312AA
:1008800003130630E200992383120313E20B432C77
:10089000AD23AD23AD238312031306168A110A126A
:1008A000B2218A110A12080083120313E000303AC1
:1008B00003197D346008313A031960346008323A14
:1008C00003193E346008333A03197A346008343A25
:1008D000031963346008353A03195B346008363A0B
:1008E00003195F346008373A031970346008383AE6
:1008F00003197F346008393A03197B346008413AA0
:10090000031977346008623A03194F346008433A98
:1009100003191D346008643A03196E346008453ABF
:1009200003191F346008463A031917346008473A20
:1009300003195D346008483A0319673460084A3A7D
:1009400003196C3460084C3A03190D3460086E3A90
:100950000319463460084F3A03197D346008703A31
:10096000031937346008723A031906346008533AA1
:1009700003195B346008743A03190F346008553A60
:1009800003196D346008593A03196B3460082D3A25
:10099000031902346008203A031900340800831256
:1009A0000313851500008316031305158312031323
:1009B000851183120313D030272700302727831295
:1009C0000313851500008316031305158312031303
:1009D000851183120313D1302727D426DB00FE268E
:1009E000D426DA00FE26D426D900FE26D426DC0042
:1009F000FE26D426DD00FE26D426DE00FE26D426E2
:100A0000DF001327831203138511000000008316F3
:100A100003130515831203138515080083120313AE
:100A20008515000083160313051583120313851122
:100A300083120313D0302727003027278312031394
:100A40008515000083160313051583120313851102
:100A500083120313D1302727D426DB00FE26D426A9
:100A6000DA00FE26D426D90013278312031385113A
:100A70000000000083160313051583120313851568
:100A80000800831203138515000083160313051550
:100A900083120313851183120313D03027270030EC
:100AA00027278312031385150000831603130515EA
:100AB00083120313851183120313D1302727D42601
:100AC000FE26D426FE26D426FE26D426FE26D426AE
:100AD000DD00FE26D426DE00FE26D426DF00132706
:100AE00083120313851100000000831603130515FC
:100AF0008312031385150800831203138515000064
:100B00008316031305158312031385118312031330
:100B1000D0302727003027278312031385150000C4
:100B20008316031305158312031385118312031310
:100B3000D1302727D426FE26D426FE26D426FE260C
:100B4000D426DC0013278312031385110000000054
:100B500083160313051583120313851508008312EA
:100B60000313851500008316031305158312031361
:100B7000851183120313D0302727003027278312D3
:100B800003135B082727831203135A0827278312AE
:100B9000031359082727831203135C08272783129E
:100BA00003135D08831203132727831203135E08C0
:100BB0002727831203135F08272783120313851146
:100BC0000000000083160313051583120313851517
:100BD00008008312031385150000831603130515FF
:100BE00083120313851183120313D030272700309B
:100BF0002727831203135B082727831203135A083E
:100C000027278312031359082727831203138511FB
:100C100000000000831603130515831203138515C6
:100C200008008312031385150000831603130515AE
:100C300083120313851183120313D0302727043046
:100C40002727831203135D088312031327278312B8
:100C500003135E082727831203135F0827278312D5
:100C6000031385110000000083160313051583127A
:100C700003138515080083120313851500008316DE
:100C80000313051583120313851183120313D03048
:100C9000272703302727831203135C082727831293
:100CA000031385110000000083160313051583123A
:100CB000031385150800831203138515000083169E
:100CC0000313051583120313851183120313D03008
:100CD000272700302727831203138515000083166A
:100CE0000313051583120313851183120313D130E7
:100CF0002727D426DB00FE26D426DA00FE26D426BB
:100D0000D900FE26D426DC00FE26D426DD00FE26F1
:100D1000D426DE00FE26D426DF0013278312031319
:100D200085110000000083160313051583120313B9
:100D3000851508008312031385150000831603131D
:100D4000051583120313851183120313D03027274F
:100D500000302727831203135B082727831203130E
:100D60005A082727831203135908272783120313CE
:100D70005C082727831203135D08831203132727B8
:100D8000831203135E082727831203135F082727A4
:100D90008312031385110000000083160313051549
:100DA0008312031385150800831603138515831218
:100DB00003130830E1008312031305118316031394
:100DC000051183120313E001E00DE001E00D83162D
:100DD00003130515831203138519FA2E83120313C7
:100DE000051183160313051183120313E10BE62E7D
:100DF00060080800831203136014EE2E831203139D
:100E000085118316031385118312031383160313AD
:100E10000515831203130000051183160313051132
:100E2000831203130800831203138515831603131B
:100E300085118312031383160313051583120313FD
:100E4000051183160313051183120313080083127F
:100E50000313E00083160313851183120313083074
:100E6000E100831203130511831603130511831286
:100E70000313851183120313E01B652783160313E5
:100E8000051583120313E00D831203130511831656
:100E90000313051183120313E10B372F831603137A
:100EA0008515831203130511831603130511000022
:100EB00000000000000005158312031305118316BE
:100EC00003130511831203130800831203138515FE
:100ED0000800831203178D00831603170C140000FB
:100EE0000000831203170C0800000313831208008C
:100EF000831203178C00831603170C1555308D00D1
:100F0000AA308D008C14000000008C18852F0C1165
:060F100003138312080028
:02400E00A220EE
:02401000FF3877
:00000001FF
