:020000040000FA
:02000000422894
:040002000034003492
:080008008B130830B300061849
:100010001B288618072806181B28861C0B28800D0D
:10002000001006190014B20AB30B0728B40A840A98
:10003000B40B05283328831203132008E039A03AB3
:10004000031D33280C30831203133202031C3328A0
:100050008A303202031833283118B1172F28203084
:100060008A150A125F208A110A1239208A110A128F
:10007000090083120313B201203084001230B4004F
:10008000B10108008A110A129F218A150A12422022
:100090008A150A121E208A110A1239208A110A12A0
:1000A00083120313C601C70100308A150A125325B3
:1000B0008A110A1283120313DA0001308A150A1218
:1000C00053258A110A1283120313DB0002308A15AA
:1000D0000A1253258A110A1283120313DC0003301B
:1000E0008A150A1253258A110A1283120313DD009E
:1000F00004308A150A1253258A110A128312031337
:10010000DE0005308A150A1253258A110A1283125D
:100110000313DF0006308A150A1253258A110A12CA
:1001200083120313E0008A150A1216248A110A1298
:100130008A150A1285238A110A12831203135D0895
:10014000013A0319CA285D08023A0319DD285D083F
:10015000033A0319F0285D08043A031903295D08DE
:10016000053A031916295D08063A0319292983124D
:1001700003132030B6003530B7005530B8006E306C
:10018000B9002030BA0036308A150A12AD218A1122
:100190000A123B29831203132030B6006E30B700D9
:1001A0006E30B8003030B9006E30BA0036308A1583
:1001B0000A12AD218A110A123B298312031320303F
:1001C000B6007430B7005530B8004530B90035304E
:1001D000BA0036308A150A12AD218A110A123B295B
:1001E000831203132030B6005530B7005530B800E5
:1001F0004530B9006430BA0036308A150A12AD2194
:100200008A110A123B29831203132030B60074307E
:10021000B7004830B8003130B9007230BA0036301B
:100220008A150A12AD218A110A123B29831203137F
:100230002030B6004630B7007230B8003130B90017
:100240002030BA0036308A150A12AD218A110A12FE
:100250003B29831203132030B6003530B7004130FC
:10026000B8007430B9002030BA0036308A150A124E
:10027000AD218A110A12831203135E0E0F39303E2C
:1002800083120313BB00831203135E080F39303E41
:1002900083120313BC002D30BD00831203135F0EC5
:1002A0000F39303E83120313BE00831203135F081D
:1002B0000F39303E83120313BF003B308A150A12F8
:1002C000CE218A110A12831203135A0E0F39303EBF
:1002D00083120313C000831203135A080F39303EF0
:1002E00083120313C100831203135B0E0F39303ED8
:1002F00083120313C200831203135B080F39303ECD
:1003000083120313C300831203135C0E0F39303EB4
:1003100083120313C400831203135C080F39303EA9
:1003200083120313C50040308A150A12EF218A1187
:100330000A128A150A120F208A110A1298288316A7
:10034000031788018901850183120317870188013A
:10035000831203133130900083160313971317137E
:10036000A830810050308B008316031303018500F1
:1003700087008800890086000614861406158312FB
:1003800003138501860187018801890183120C10FE
:040390000800C9296F
:10100000831203138230E500FF30E600FF30E70073
:10101000E70B0828E60B0628E50B042808008312D6
:1010200003131A30E500FF30E600FF30E700E70B5E
:101030001728E60B1528E50B132808008312031365
:101040000D30E500FF30E600FF30E700E70B262813
:10105000E60B2428E50B222808000630E800E80B00
:101060002F2808000330E800E80B3428080083121A
:10107000031389303206031D412883120313C6016E
:101080000800080083120313061686128A150A1236
:101090002D208A150A1266228A150A127B228A15C9
:1010A0000A128E228A150A12A1228A150A124C22CD
:1010B0008A150A1259228A150A12B72208008312C9
:1010C0000313E600123E84000008E5006608840071
:1010D0008312031306128A150A122D208A150A128A
:1010E000831203130830E700801F8428262283120E
:1010F0000313E50B7F288312031306160800800DE7
:10110000E70B7428840A72281222772883120313AB
:10111000E6003A22831203130630E70012228312FC
:101120000313E70B8E28660884000830E7000008E8
:10113000E500E51FB028262283120313E50DE70B17
:101140009928840A6608103E0406031D9528831218
:10115000031306168A150A1232208A150A1208008D
:1011600012229C288A150A12CD228A150A12E6003C
:101170000408E8004808103C493E840066088000E6
:101180006808840049308620080083120313E600B3
:101190000408E8001030E7006608840000088A159B
:1011A0000A12CD228A150A12E5006703493E84001F
:1011B00065088000E60AE70BCC286608E22068088C
:1011C000840008008312031384000008E500840AE9
:1011D0000008E900493084001030E7008013840AD9
:1011E000E70BEE28E51BD817651BD717E51AD617AE
:1011F000651AD517E519D4176519D317E518D2174D
:101200006518D117E91BD017691BCF17E91ACE173C
:10121000691ACD17E919CC176919CB17E918CA173C
:101220006918C917080083120313E6000408E800D0
:1012300066088400831203135908013A03198017C2
:101240005908023A031900175908033A031980167E
:101250005908043A031900165908053A031980156C
:101260005908063A031900155908073A031980145A
:101270005908083A03190014840A5908093A03194D
:10128000801759080A3A0319001759080B3A03192D
:10129000801659080C3A0319001659080D3A03191B
:1012A000801559080E3A0319001559080F3A031909
:1012B00080145908103A03190014680884000800C3
:1012C00083120313E6000408E80066088400831212
:1012D00003135908013A031980135908023A0319F4
:1012E00000135908033A031980125908043A0319E4
:1012F00000125908053A031980115908063A0319D2
:1013000000115908073A031980105908083A0319BF
:101310000010840A5908093A0319801359080A3A37
:101320000319001359080B3A0319801259080C3A93
:101330000319001259080D3A0319801159080E3A81
:101340000319001159080F3A031980105908103A6F
:101350000319001068088400080083120313E600D4
:101360000408E8000530E7006608840000088A15D4
:101370000A12CD228A150A12E5000A306707493E93
:10138000840065088000E60AE70BB42966080B3E76
:10139000E220680884004930862008008312031385
:1013A000E6000408E8000530E7006608840000084D
:1013B0008A150A12CD228A150A12E5000530670740
:1013C000493E840065088000E60AE70BD5296608D7
:1013D000063EE22068088400493086200800831217
:1013E0000313E6000408E8000630E70066088400FE
:1013F00000088A150A12CD228A150A12E500670331
:10140000493E840065088000E60AE70BF629660875
:10141000E22068088400493086200800C520493051
:1014200086200800831203138613000086168A158F
:101430000A122D208A150A128312031386128613AC
:101440008A150A122D208A150A1208008312031326
:101450008617000086168A150A122D208A150A1290
:1014600083120313861286138A150A122D208A15F9
:101470000A1208008312031306128A150A122D207D
:101480008A150A12262212222622080006122D2070
:10149000262212221222080046221222262212227C
:1014A00012221222122212221222122206162D209B
:1014B0000800462226222622262212221222122248
:1014C00026222622262206162D20080046228312D6
:1014D00003130730E700122283120313E70B6B2A72
:1014E000262226228312031306168A150A122D209D
:1014F0008A150A12080046221222122212222622DD
:1015000026221222122212221222831203130616FC
:101510008A150A122D208A150A1208004622122264
:1015200012222622122226221222122226222622CB
:101530008312031306168A150A122D208A150A1221
:1015400008004622831203130630E700122283129A
:101550000313E70BA62A2622122212228312031358
:1015600006168A150A122D208A150A12080046222C
:10157000831203130630E700122283120313E70BD2
:10158000BC2A2622262226228312031306168A1537
:101590000A122D208A150A12080083120313E5008F
:1015A000303A03197D346508313A0319603465080F
:1015B000323A03193E346508333A03197A34650820
:1015C000343A031963346508353A03195B34650806
:1015D000363A03195F346508373A031970346508E1
:1015E000383A03197F346508393A03197B346508A2
:1015F000413A031977346508623A03194F34650894
:10160000433A03191D346508643A03196E346508BA
:10161000453A03191F346508463A0319173465081B
:10162000473A03195D346508483A03196734650879
:101630004A3A03196C3465084C3A03190D346508AD
:101640006E3A0319463465084F3A03197D3465082C
:10165000703A031937346508723A0319063465087D
:10166000533A03195B346508743A03190F3465085B
:10167000553A03196D346508593A03196B346508F6
:101680002D3A031902346508203A03190034080082
:1016900083120313851500008316031305158312A7
:1016A0000313851183120313D03011250030112547
:1016B0008312031385150000831603130515831287
:1016C00003138511D1301125BC24DC00E824BC248F
:1016D000DB00E824BC24DA00E824BC24DD00E82494
:1016E000BC24DE00E824BC24DF00E824BC24E000A5
:1016F000FD248312031385110000000083160313D9
:10170000051583120313851508008312031385152D
:10171000000083160313051583120313851183122A
:101720000313D030112500301125831203138515C2
:101730000000831603130515831203138511D1309E
:101740001125BC24DC00E824BC24DB00E824BC24F4
:10175000DA00FD24831203138511000000008316B4
:101760000313051583120313851508008312031351
:1017700085150000831603130515831203138511C5
:1017800083120313D0301125043011258312031363
:1017900085150000831603130515831203138511A5
:1017A00083120313D1301125BC24DE00E824BC24AD
:1017B000DF00E824BC24E000FD248312031385111C
:1017C000000000008316031305158312031385150B
:1017D00008008312031385150000831603130515F3
:1017E00083120313851183120313D03011250330A4
:1017F00011258312031385150000831603130515A5
:1018000083120313851183120313D1301125BC24D5
:10181000DD00FD24831203138511000000008316F0
:101820000313051583120313851508008312031390
:101830008515000083160313051583120313851104
:10184000D030112500301125831203135C081125B7
:10185000831203135B081125831203135A08112501
:10186000831203135D081125831203135E081125EB
:10187000831203135F0811258312031360081125D7
:10188000831203138511000000008316031305154E
:1018900083120313851508008312031385150000B6
:1018A0008316031305158312031385118312031383
:1018B000D030112500301125831203135C08112547
:1018C000831203135B081125831203135A08112591
:1018D00083120313851100000000831603130515FE
:1018E0008312031385150800831203138515000066
:1018F0008316031305158312031385118312031333
:10190000D030112504301125831203135E081125F0
:10191000831203135F081125831203136008112536
:1019200083120313851100000000831603130515AD
:101930008312031385150800831203138515000015
:1019400083160313051583120313851183120313E2
:10195000D030112503301125831203135D081125A2
:10196000831203138511000000008316031305156D
:10197000831203138515080083160313851583123C
:1019800003130830E60083120313051183160313B3
:10199000051183120313E501E50DE501E50D83163D
:1019A00003130515831203138519E42C8312031303
:1019B000051183160313051183120313E60BCE2CB6
:1019C0008312031365080800831203136514D62CD1
:1019D00083120313851183160313851183120313D6
:1019E00083160313051583120313000005118316D4
:1019F00003130511831203130800831203138515C3
:101A0000831603138511831203138316031305151D
:101A10008312031305118316031305118312031395
:101A2000080083120313E500831603138511831244
:101A300003130830E6008312031305118316031302
:101A4000051183120313851183120313E51B4F2520
:101A500083160313051583120313E50D8312031375
:101A6000051183160313051183120313E60B212DB1
:101A700083160313851583120313051183160313AD
:101A8000051100000000000000000515831203137B
:101A90000511831603130511831203130800831223
:101AA000031385150800831203178D00831603178F
:101AB0000C1400000000831203170C08000003132D
:101AC00083120800831203178C00831603170C156A
:101AD00055308D00AA308D008C14000000008C1849
:101AE0006F2D0C1103138312080083120313E400FB
:101AF0008312031385150000831603130515831243
:101B000003138511A0301F2661081F2662081F26B7
:101B10008312031364081F26831203138511000028
:101B2000000083160313051583120313851508009F
:101B3000080083120313851500008316031305158F
:101B4000831203138511A0301F268312031361082B
:101B50001F268312031362081F26831203138515A1
:101B60000000831603130515831203138511A1309A
:101B70001F26CE2583120313E4000D2683120313C0
:101B8000851100000000831603130515831203134B
:101B900085158312031364080800080083160313D5
:101BA0008515831203130830E60083120313051111
:101BB00083160313051183120313E501E50DE501F7
:101BC000E50D831603130515831203138519F62DEE
:101BD00083120313051183160313051183120313D4
:101BE000E60BE02D8312031365080800831203132C
:101BF0006514E82D831203138511831603138511D1
:101C000083120313831603130515831203130000B5
:101C1000051183160313051108008312031385159C
:101C200083160313851183120313831603130515FB
:101C30008312031305118316031305110800831281
:101C40000313E50083160313851183120313083071
:101C5000E600831203130511831603130511831283
:101C60000313851183120313E51B5D2683160313EB
:101C7000051583120313E50D831203130511831653
:101C80000313051183120313E60B2F2E8316031380
:101C90008515831203130511831603130511000024
:101CA00000000000000005158312031305118316C0
:101CB0000313051183120313080083120313851500
:021CC00008001A
:02400E00A220EE
:02401000FF3877
:0E420000160045000000010021000200180019
:00000001FF
