:020000040000FA
:02000000422894
:040002000034003492
:080008008B130830B300061849
:100010001B288618072806181B28861C0B28800D0D
:10002000001006190014B20AB30B0728B40A840A98
:10003000B40B05283328831203132008E039A03AB3
:10004000031D33280C30831203133202031C3328A0
:100050008A303202031833283118B1172F28203084
:100060008A110A1285218A110A1239208A110A126C
:10007000090083120313B201203084001230B4004F
:10008000B10108008A110A12FB208A110A126821A4
:100090008A110A1244218A110A1239208A110A127D
:1000A00083120313C501C601831203137430B50014
:1000B0003130B6006E30B7006E30B8004530B90050
:1000C0002030BA002030BB002030BC002030BD0002
:1000D0002030BE002030BF002030C0002030C100E2
:1000E0002030C2002030C3002030C40035308A11D7
:1000F0000A1236238A110A128A110A1235218A112C
:100100000A12831203130830D80045308A110A12EC
:100110003A2245308A110A12092248308A110A12FD
:10012000AC218A110A12831203130A30D800453019
:100130008A110A123A2245308A110A1209224830DD
:100140008A110A12AC218A110A1283120313103089
:10015000D9004530DA000030DB001830DF00023013
:10016000DE002130DD000330DC008A110A123E255A
:100170008A110A128A110A1270248A110A12831231
:100180000313590E0F39303E83120313BF0083123D
:10019000031359080F39303E83120313C000831232
:1001A00003135A0E0F39303E83120313C10083121A
:1001B00003135A080F39303E83120313C20083120F
:1001C00003135B0E0F39303E83120313C3008312F7
:1001D00003135B080F39303E83120313C4003F3012
:1001E0008A110A1216238A110A128A110A1235215B
:1001F0008A110A12BA28831603178801890185011A
:100200008312031787018801831203133130900092
:100210008316031397131713A830810050308B00F7
:100220008316031303018500870088008900860078
:1002300006148614061583120313850186018701AF
:0C0240008801890183120C100800252998
:04024C008312031303
:100250008230E000FF30E100FF30E200E20B2E29A7
:10026000E10B2C29E00B2A290800831203131A3012
:10027000E000FF30E100FF30E200E20B3D29E10B3E
:100280003B29E00B39290800831203130D30E000ED
:10029000FF30E100FF30E200E20B4C29E10B4A297C
:1002A000E00B482908000630E300E30B552908005D
:1002B0000330E300E30B5A2908008312031389304B
:1002C0003206031D672983120313C50108000800C5
:1002D00083120313061686128A110A1253218A11F9
:1002E0000A128E238A110A12A3238A110A12B62334
:1002F0008A110A12C9238A110A1274238A110A1256
:1003000081238A110A12DF23080083120313E100FC
:10031000123E84000008E000610884008312031389
:1003200006128A110A1253218A110A128312031328
:100330000830E200801FAA294E2383120313E00B2A
:10034000A5298312031306160800800DE20B9A29D3
:10035000840A98293A239D2983120313E10062231A
:10036000831203130630E2003A2383120313E20BD5
:10037000B429610884000830E2000008E000E01FB2
:10038000D6294E2383120313E00DE20BBF29840A02
:100390006108103E0406031DBB29831203130616D1
:1003A0008A110A1258218A110A1208003A23C22916
:1003B0008A110A12F5238A110A12E1000408E300E7
:1003C0004708103C483E84006108800063088400B0
:1003D0004830AC21080083120313E1000408E30055
:1003E0001030E2006108840000088A110A12F52327
:1003F0008A110A12E0006203483E8400600880000F
:10040000E10AE20BF2296108103E09226308840028
:1004100008008312031384000008E000840A000827
:10042000E400483084001030E2008013840AE20BBC
:10043000152AE01BD717601BD617E01AD517601ACC
:10044000D417E019D3176019D217E018D117601824
:10045000D017E41BCF17641BCE17E41ACD17641A0C
:10046000CC17E419CB176419CA17E418C917641814
:10047000C817080083120313E1000408E3006108B1
:100480008400831203135808013A0319801758088F
:10049000023A031900175808033A0319801658083E
:1004A000043A031900165808053A0319801558082C
:1004B000063A031900155808073A0319801458081A
:1004C000083A03190014840A5808093A03198017D6
:1004D00058080A3A0319001758080B3A03198016EE
:1004E00058080C3A0319001658080D3A03198015DC
:1004F00058080E3A0319001558080F3A03198014CA
:100500005808103A03190014630884000800831285
:100510000313E1000408E30061088400831203135D
:100520005808013A031980135808023A03190013B6
:100530005808033A031980125808043A03190012A4
:100540005808053A031980115808063A0319001192
:100550005808073A031980105808083A0319001080
:10056000840A5808093A0319801358080A3A0319EB
:10057000001358080B3A0319801258080C3A031953
:10058000001258080D3A0319801158080E3A031941
:10059000001158080F3A031980105808103A03192F
:1005A000001063088400080083120313E1000408AC
:1005B000E3000530E2006108840000088A110A1295
:1005C000F5238A110A12E0000A306207483E8400CF
:1005D00060088000E10AE20BDB2A6108103E092274
:1005E000630884004830AC21080083120313E10043
:1005F0000408E3000530E2006108840000088A1165
:100600000A12F5238A110A12E00005306207483EFB
:10061000840060088000E10AE20BFC2A61080B3EBE
:100620000922630884004830AC21080083120313B8
:10063000E1000408E3000630E200610884000008DD
:100640008A110A12F5238A110A12E0006203483E59
:10065000840060088000E10AE20B1D2B6108063E61
:100660000922630884004830AC210800EB2148309F
:10067000AC210800831203138613000086168A112A
:100680000A1253218A110A12831203138612861347
:100690008A110A1253218A110A12080083120313C5
:1006A0008617000086168A110A1253218A110A122F
:1006B00083120313861286138A110A1253218A1198
:1006C0000A1208008312031306128A110A12532118
:1006D0008A110A124E233A234E2308000612532190
:1006E0004E233A233A2308006E233A234E233A231B
:1006F0003A233A233A233A233A233A23061653213C
:1007000008006E234E234E234E233A233A233A23E6
:100710004E234E234E230616532108006E238312C8
:1007200003130730E2003A2383120313E20B932BE7
:100730004E234E238312031306168A110A125321E5
:100740008A110A1208006E233A233A233A234E23D1
:100750004E233A233A233A233A23831203130616ED
:100760008A110A1253218A110A1208006E233A23B1
:100770003A234E233A234E233A233A234E234E2341
:100780008312031306168A110A1253218A110A12C0
:1007900008006E23831203130630E2003A2383120B
:1007A0000313E20BCE2B4E233A233A238312031377
:1007B00006168A110A1253218A110A1208006E23A2
:1007C000831203130630E2003A2383120313E20B71
:1007D000E42B4E234E234E238312031306168A1155
:1007E0000A1253218A110A12080083120313E0002F
:1007F000303A03197D346008313A031960346008D7
:10080000323A03193E346008333A03197A346008E7
:10081000343A031963346008353A03195B346008CD
:10082000363A03195F346008373A031970346008A8
:10083000383A03197F346008393A03197B34600869
:10084000413A031977346008623A03194F3460085B
:10085000433A03191D346008643A03196E34600882
:10086000453A03191F346008463A031917346008E3
:10087000473A03195D346008483A03196734600841
:100880004A3A03196C3460084C3A03190D34600875
:100890006E3A0319463460084F3A03197D346008F4
:1008A000703A031937346008723A03190634600845
:1008B000533A03195B346008743A03190F34600823
:1008C000553A03196D346008593A03196B346008BE
:1008D0002D3A031902346008203A03190034080045
:1008E0008312031385150000831603130515831265
:1008F0000313851183120313D030392600303926B3
:100900008312031385150000831603130515831244
:1009100003138511D1303926E425DB001026E425A8
:10092000DA001026E425D9001026E425DC00102684
:10093000E425DD001026E425DE001026E425DF0096
:10094000252683120313851100000000831603136C
:1009500005158312031385150800831203138515EB
:1009600000008316031305158312031385118312E8
:100970000313D0303926003039268312031385152E
:100980000000831603130515831203138511D1305C
:100990003926E425DB001026E425DA001026E425BC
:1009A000D900252683120313851100000000831649
:1009B000031305158312031385150800831203130F
:1009C0008515000083160313051583120313851183
:1009D00083120313D03039260430392683120313CF
:1009E0008515000083160313051583120313851163
:1009F00083120313D1303926E425DD001026E425C7
:100A0000DE001026E425DF0025268312031385115E
:100A100000000000831603130515831203138515C8
:100A200008008312031385150000831603130515B0
:100A300083120313851183120313D0303926033038
:100A40003926831203138515000083160313051539
:100A500083120313851183120313D1303926E42541
:100A6000DC00252683120313851100000000831685
:100A7000031305158312031385150800831203134E
:100A800085150000831603130515831203138511C2
:100A9000D030392600303926831203135B083926FB
:100AA000831203135A08392683120313590839266F
:100AB000831203135C083926831203135D08392659
:100AC000831203135E083926831203135F08392645
:100AD000831203138511000000008316031305150C
:100AE0008312031385150800831203138515000074
:100AF0008316031305158312031385118312031341
:100B0000D030392600303926831203135B0839268A
:100B1000831203135A0839268312031359083926FE
:100B200083120313851100000000831603130515BB
:100B30008312031385150800831203138515000023
:100B400083160313051583120313851183120313F0
:100B5000D030392604303926831203135D08392634
:100B6000831203135E083926831203135F083926A4
:100B7000831203138511000000008316031305156B
:100B800083120313851508008312031385150000D3
:100B900083160313051583120313851183120313A0
:100BA000D030392603303926831203135C083926E6
:100BB000831203138511000000008316031305152B
:100BC00083120313851508008316031385158312FA
:100BD00003130830E1008312031305118316031376
:100BE000051183120313E001E00DE001E00D83160F
:100BF000031305158312031385190C2E8312031397
:100C0000051183160313051183120313E10BF62D4F
:100C10008312031360080800831203136014FE2D6F
:100C20008312031385118316031385118312031393
:100C30008316031305158312031300000511831691
:100C40000313051183120313080083120313851580
:100C500083160313851183120313831603130515DB
:100C60008312031305118316031305118312031353
:100C7000080083120313E000831603138511831207
:100C800003130830E10083120313051183160313C5
:100C9000051183120313851183120313E01B7726BA
:100CA00083160313051583120313E00D8312031338
:100CB000051183160313051183120313E10B492E4B
:100CC000831603138515831203130511831603136B
:100CD0000511000000000000000005158312031339
:100CE00005118316031305118312031308008312E1
:100CF000031385150800831203178D00831603174D
:100D00000C1400000000831203170C0800000313EA
:100D100083120800831203178C00831603170C1527
:100D200055308D00AA308D008C14000000008C1806
:0A0D3000972E0C1103138312080024
:02400E00A220EE
:02401000FF3877
:00000001FF
