:020000040000FA
:02000000422894
:040002000034003492
:080008008B130830B300061849
:100010001B288618072806181B28861C0B28800D0D
:10002000001006190014B20AB30B0728B40A840A98
:10003000B40B05283328831203132008E039A03AB3
:10004000031D33280C30831203133202031C3328A0
:100050008A303202031833283118B1172F28203084
:100060008A110A12E4218A110A1239208A110A120D
:10007000090083120313B201203084001230B4004F
:10008000B10108008A110A125A218A110A12C721E5
:100090008A110A12A3218A110A1239208A110A121E
:1000A00083120313C501C601831203134830B50040
:1000B0004530B6004C30B7004C30B8004F30B90076
:1000C0002030BA004630BB004F30BC007230BD005B
:1000D0002030BE002030BF004130C0004C30C10095
:1000E0004C30C2002030C3002030C40035308A11AB
:1000F0000A1295238A110A128A110A1294218A116E
:100100000A12831203130130D80045308A110A12F3
:10011000992245308A110A12682248308A110A123F
:100120000B228A110A128A110A1294218A110A12C8
:10013000831203132030B5006230B6005930B70087
:100140004530B8002030B90035308A110A12332307
:100150008A110A128A110A1294218A110A12831230
:1001600003130230D80045308A110A129922453013
:100170008A110A12682248308A110A120B228A1147
:100180000A128A110A1294218A110A128312031385
:100190002030BA006E30BB006E30BC005930BD005C
:1001A0002030BE003A308A110A1254238A110A12F2
:1001B0008A110A1294218A110A128312031303303E
:1001C000D80045308A110A12992245308A110A1244
:1001D000682248308A110A120B228A110A128A11E7
:1001E0000A1294218A110A12831203134630BF00A7
:1001F0007230C0003130C1004530C2006E30C300E3
:100200006430C4003F308A110A1275238A110A1221
:100210008A110A1294218A110A12831203130630DA
:10022000C70064308A110A1237228A110A128A1111
:100230000A1294218A110A12831203130730C7008D
:1002400045308A110A1237228A110A128A110A12BB
:1002500094218A110A12831203130830C700413017
:100260008A110A1237228A110A128A110A1294215B
:100270008A110A12831203130930C70072308A11DF
:100280000A1237228A110A128A110A1294218A113B
:100290000A12831203130A30C70020308A110A128F
:1002A00037228A110A128A110A1294218A110A121B
:1002B0008B17592983160317880189018501831239
:1002C00003178701880183120313313090008316CE
:1002D000031397131713A830810050308B00831637
:1002E0000313030185008700880089008600061437
:1002F0008614061583120313850186018701880180
:0A030000890183120C100800842903
:06030A0083120313823090
:10031000D900FF30DA00FF30DB00DB0B8D29DA0B70
:100320008B29D90B89290800831203131A30D900AD
:10033000FF30DA00FF30DB00DB0B9C29DA0B9A2957
:10034000D90B98290800831203130D30D900FF3010
:10035000DA00FF30DB00DB0BAB29DA0BA929D90B64
:10036000A72908000630DC00DC0BB42908000330A4
:10037000DC00DC0BB9290800831203138930320634
:10038000031DC62983120313C50108000800831248
:100390000313061686128A110A12B2218A110A1252
:1003A000ED238A110A1202248A110A1215248A11D5
:1003B0000A1228248A110A12D3238A110A12E0236E
:1003C0008A110A123E24080083120313DA00123E37
:1003D00084000008D9005A0884008312031306120F
:1003E0008A110A12B2218A110A12831203130830E9
:1003F000DB00801F092AAD2383120313D90B042AC3
:100400008312031306160800800DDB0BF929840AFA
:10041000F7299923FC2983120313DA00C1238312DD
:1004200003130630DB00992383120313DB0B132A1B
:100430005A0884000830DB000008D900D91F352A8B
:10044000AD2383120313D90DDB0B1E2A840A5A082D
:10045000103E0406031D1A2A8312031306168A117E
:100460000A12B7218A110A1208009923212A8A1137
:100470000A1254248A110A12DA000408DC00470820
:10048000103C483E84005A0880005C0884004830D4
:100490000B22080083120313DA000408DC0010307A
:1004A000DB005A08840000088A110A1254248A11B9
:1004B0000A12D9005B03483E840059088000DA0A1A
:1004C000DB0B512A5A08103E68225C0884000800A1
:1004D0008312031384000008D900840A0008DD0099
:1004E000483084001030DB008013840ADB0B742A50
:1004F000D91BD717591BD617D91AD517591AD4177C
:10050000D919D3175919D217D918D1175918D01783
:10051000DD1BCF175D1BCE17DD1ACD175D1ACC176B
:10052000DD19CB175D19CA17DD18C9175D18C81773
:10053000080083120313DA000408DC005A08840060
:10054000831203135808013A031980175808023A16
:10055000031900175808033A031980165808043A7B
:10056000031900165808053A031980155808063A69
:10057000031900155808073A031980145808083A57
:1005800003190014840A5808093A031980175808F7
:100590000A3A0319001758080B3A0319801658082D
:1005A0000C3A0319001658080D3A0319801558081B
:1005B0000E3A0319001558080F3A03198014580809
:1005C000103A031900145C08840008008312031316
:1005D000DA000408DC005A08840083120313580868
:1005E000013A031980135808023A031900135808F6
:1005F000033A031980125808043A031900125808E4
:10060000053A031980115808063A031900115808D1
:10061000073A031980105808083A03190010840A91
:100620005808093A0319801358080A3A03190013A5
:1006300058080B3A0319801258080C3A0319001293
:1006400058080D3A0319801158080E3A0319001181
:1006500058080F3A031980105808103A031900106F
:100660005C088400080083120313DA000408DC002D
:100670000530DB005A08840000088A110A1254244D
:100680008A110A12D9000A305B07483E84005908D3
:100690008000DA0ADB0B3A2B5A08103E68225C080D
:1006A000840048300B22080083120313DA00040888
:1006B000DC000530DB005A08840000088A110A12A9
:1006C00054248A110A12D90005305B07483E840081
:1006D00059088000DA0ADB0B5B2B5A080B3E6822B4
:1006E0005C08840048300B22080083120313DA00F0
:1006F0000408DC000630DB005A08840000088A1178
:100700000A1254248A110A12D9005B03483E84005D
:1007100059088000DA0ADB0B7C2B5A08063E682257
:100720005C08840048300B2208004A2248300B2223
:100730000800831203138613000086168A110A121A
:10074000B2218A110A1283120313861286138A11A8
:100750000A12B2218A110A120800831203138617A3
:10076000000086168A110A12B2218A110A12831217
:100770000313861286138A110A12B2218A110A12F1
:1007800008008312031306128A110A12B2218A1179
:100790000A12AD239923AD2308000612B221AD231E
:1007A000992399230800CD239923AD2399239923D5
:1007B000992399239923992399230616B221080096
:1007C000CD23AD23AD23AD23992399239923AD23C5
:1007D000AD23AD230616B2210800CD2383120313E7
:1007E0000730DB00992383120313DB0BF22BAD23BD
:1007F000AD238312031306168A110A12B2218A113D
:100800000A120800CD23992399239923AD23AD2300
:1008100099239923992399238312031306168A1186
:100820000A12B2218A110A120800CD2399239923B2
:10083000AD239923AD2399239923AD23AD238312AF
:10084000031306168A110A12B2218A110A1208002D
:10085000CD23831203130630DB0099238312031385
:10086000DB0B2D2CAD23992399238312031306163A
:100870008A110A12B2218A110A120800CD238312AA
:1008800003130630DB00992383120313DB0B432C85
:10089000AD23AD23AD238312031306168A110A126A
:1008A000B2218A110A12080083120313D900303AC8
:1008B00003197D345908313A031960345908323A22
:1008C00003193E345908333A03197A345908343A33
:1008D000031963345908353A03195B345908363A19
:1008E00003195F345908373A031970345908383AF4
:1008F00003197F345908393A03197B345908413AAE
:10090000031977345908623A03194F345908433AA6
:1009100003191D345908643A03196E345908453ACD
:1009200003191F345908463A031917345908473A2E
:1009300003195D345908483A0319673459084A3A8B
:1009400003196C3459084C3A03190D3459086E3A9E
:100950000319463459084F3A03197D345908703A3F
:10096000031937345908723A031906345908533AAF
:1009700003195B345908743A03190F345908553A6E
:1009800003196D345908593A03196B3459082D3A33
:0E099000031902345908203A031900340800F4
:02400E00A220EE
:02401000FF3877
:00000001FF
